:020000040800F2
:10000000FCFF0020751100002910000029100000DD
:1000100029100000291000002910000029100000FC
:1000200029100000291000002910000029100000EC
:1000300029100000291000002910000029100000DC
:1000400029100000291000002910000029100000CC
:1000500029100000291000002910000029100000BC
:1000600029100000291000002910000029100000AC
:10007000291000002910000029100000291000009C
:10008000291000002910000029100000291000008C
:10009000291000002910000029100000291000007C
:1000A000291000002910000029100000291000006C
:1000B000291000002910000029100000291000005C
:1000C000291000002910000029100000291000004C
:1000D000291000002910000029100000291000003C
:1000E000291000002910000029100000291000002C
:1000F000291000002910000029100000291000001C
:10010000291000002910000029100000291000000B
:1001100029100000291000002910000029100000FB
:1001200029100000291000002910000029100000EB
:1001300029100000291000002910000029100000DB
:1001400029100000291000002910000029100000CB
:1001500081B0194900EA0101084600220EE004209E
:1001600022E0082020E010201EE020201CE040209B
:100170001AE0802018E040F2001015E00F49884294
:10018000EDD00F498842ECD00E498842EBD00E49A1
:100190008842EAD00D498842E9D00D498842E8D02A
:1001A0000C498842E7D010460B49096841EA000231
:1001B00009490A6001B0704700FCFFFF00080140D8
:1001C000000C0140001001400014014000180140E3
:1001D000001C0140002001401810024081B000F2D4
:1001E0000C02116000F208021368C3F3000202B9A6
:1001F000F8E700F20C02126890B201B07047FFFFFE
:1002000083B0CDF800E000F0FF031A09104603F0B8
:100210000F02134614E0194A02921FE0184A029294
:100220001CE0184A029219E0174A029216E0174A97
:10023000029213E0164A029210E0164A02920DE072
:100240000028E8D00128E9D00228EAD00328EBD022
:100250000428ECD00528EDD00628EED0012212B2F9
:100260009A40ADF8042002980A46BDF8041000F048
:1002700013F8DDF800E003B0704700BF000801404C
:10028000000C014000100140001401400018014022
:10029000001C01400020014081B0CDF800E08CB28C
:1002A0001546774B00EA03031E461846FFF750FF3A
:1002B000B4F1FF0F0CD1734B9D4203D14FF0333398
:1002C0003360D9E0422D03D14FF044333360D3E0A3
:1002D0004FF6FF739C4214D16A4B9D4207D14FF0F9
:1002E00033333360341D4FF033332360C4E0422D89
:1002F00007D14FF044333360341D4FF04433236053
:10030000BAE00021002005F001030BB100211DE03F
:1003100005F0020333B105F4C0730BB1082100E00E
:10032000042113E005F0040333B105F020030BB101
:10033000042100E0002109E005F0080333B105F0D5
:1003400020030BB10C2100E00821FFE74E4B05EA2A
:1003500003030BB1032009E005F400730BB1022085
:1003600004E005F480630BB10120FFE705F00C0306
:100370000BB10143FFE704F0FF039BB2002B3BD01E
:10038000376800201FFA84F832462E4608282CD2FF
:100390004FF0010303FA00F408EA0403A34222D158
:1003A00085004FF00F03AB40DB4307EA030401FA7B
:1003B00005F344EA03031D4606F48173B3F5817F18
:1003C00005D102F214044FF001038340236006F0CC
:1003D0008203822B05D102F210044FF00103834007
:1003E00023602F46FFE7401CD0E717601FFA88F014
:1003F0000F463146164602E00F462946A0B2B0F13C
:10040000FF0F39D9331DD3F800800022082A30D2DB
:1004100002F208044FF0010303FA04F400EA0403B3
:10042000A34224D195004FF00F03AB40DB4308EA11
:10043000030807FA05F348EA030801F48173B3F5EA
:10044000817F07D106F2140502F208044FF0010380
:10045000A3402B6001F08203822B07D106F2100526
:1004600002F208044FF00103A3402B60FFE7521C87
:10047000CCE7331DC3F80080DDF800E001B0704721
:1004800000FCFFFF140008000008080081B00023F2
:100490000360CB009BB242EA030304689BB244EAC8
:1004A00003030360051D13141C462B6864F38203C9
:1004B0002B6000F21C0500242B6864F3CB232B6017
:1004C0000124036864F38613036001B07047FFFFE3
:1004D00081B0CDF800E0012252B23E490A6000F23C
:1004E00068010B686FF0006103EA0102144603F033
:1004F0000061C90E0B4602F00041B1F1004F02D17C
:1005000035490A6801E035490A6804F47021090C8C
:100510000E464FF6FF7104EA01010D4604F4401146
:10052000B1F5401F0DD16FF0706102EA01010E4676
:100530002A490A686FF070610A4028490A60324609
:1005400016E004F48011B1F5801F09D14FF00301CA
:10055000B140C94302EA010141F070610A4607E077
:10056000610D090105FA01F1C9430A4042F07062C8
:100570002BB1610D090105FA01F10A43FFE704F00F
:100580000041B1F1004F02D113490A6001E0134963
:100590000A6040F2000A81464FEA8A0109EB010134
:1005A0000968B1F1FF3F10D009F134014FEA8A0325
:1005B000C91809680A4609EB03010968084611468B
:1005C000FFF71EFE0AF1010AE6E7DDF800E001B0E0
:1005D000704700BF000342421C000140040001407C
:1005E00081B0CDF800E081B20348FFF7F7FDDDF8F8
:1005F00000E001B0704700BF0038004081B0CDF886
:1006000000E081B20348FFF7E9FDDDF800E001B04A
:10061000704700BF003C004081B0CDF800E081B2DF
:100620000348FFF7DBFDDDF800E001B0704700BFD5
:100630000030014083B0CDF800E08DF80400029155
:100640000B4C0C4B1C600C4C0C4B1C60012464B21A
:100650000B4B1C601046FFF73BFF029A9DF80410FD
:100660000848FFF713FFDDF800E003B0704700BF54
:10067000FFFFFFFF14000020FD0500001800002010
:10068000BC034242003C004081B0CDF800E04FF096
:10069000420289B2FFF700FEDDF800E001B07047CA
:1006A00083B0CDF800E08AB2014690B283B2421E18
:1006B00090B26BB10A78D4B2ADF804000291A0B246
:1006C000054C2468A0470299BDF80400491CEDE7D9
:1006D000DDF800E003B070470C00002081B0CDF8D9
:1006E00000E0044A89B2FFF7D7FDDDF800E001B071
:1006F000704700BF1400080001490860704700BF40
:10070000B081224201490860704700BFB001224217
:1007100001490860704700BFB0812242014908606A
:10072000704700BF9881224201490860704700BFAE
:10073000AC01224201490860704700BF9401214288
:1007400001490860704700BF8C01224201490860DE
:10075000704700BFA801224201490860704700BFEE
:10076000B881224201490860704700BF948122424B
:10077000002808D3092806D8C21C12B203498918D8
:100780000978C8B200E00020704700BF5C1200008A
:1007900040F27707C0F200077F1EFDD100BF00BF07
:1007A00000BF00BF00BF704782B0CDF800E001AAD3
:1007B0001170521C10700020084C2468A04701AA38
:1007C00002211046FFF76CFFFFF7E2FF0120034C08
:1007D0002468A047DDF800E002B070470000002068
:1007E0002D2809D35F2807D8A0F22D0212B20349A1
:1007F00089180978C8B200E0002070475C12000038
:100800004DF2BF47C0F201077F1EFDD100BF00BF00
:1008100000BF00BF00BF704701490860704700BFBC
:100820009C81214201490860704700BF98812142A4
:1008300000F208010A6806490A60011D0A680549B4
:100840000A6000F218010A6803490A60704700BF95
:100850000000002004000020080000200268034976
:100860000A60011D0A6802490A6070470C000020F6
:100870001000002001490860704700BF8801224233
:1008800001490860704700BF90012142014908609A
:10089000704700BFA801224201490860704700BFAD
:1008A000B481224281B0CDF800E0011D0A680168E0
:1008B000C8B21146034AFFF7BDFE0020DDF800E094
:1008C00001B070479011000081B0CDF800E0011D2B
:1008D0000A680168C8B21146034AFFF7ABFE002060
:1008E000DDF800E001B070479011000081B0CDF854
:1008F00000E0A9E0012905D140F210016548FFF7A9
:10090000C3FE04E040F210016248FFF7E7FEBBE0DF
:10091000012905D140F204015F48FFF7B5FE04E06C
:1009200040F204015C48FFF7D9FEADE0012905D192
:1009300042F200015948FFF7A7FE04E042F200012D
:100940005648FFF7CBFE9FE0012905D140F2004158
:100950005148FFF799FE04E040F200414E48FFF78E
:10096000BDFE91E0012905D140F600014A48FFF79C
:100970008BFE04E040F600014748FFF7AFFE83E03E
:10098000012905D141F200014348FFF77DFE04E053
:1009900041F200014048FFF7A1FE75E0012905D1B1
:1009A00040F201013B48FFF76FFE04E040F2010115
:1009B0003848FFF793FE67E0012905D140F2004176
:1009C0003648FFF761FE04E040F200413348FFF78C
:1009D00085FE59E0012905D140F200212F48FFF79B
:1009E00053FE04E040F200212C48FFF777FE4BE075
:1009F000012905D140F200112848FFF745FE04E027
:100A000040F200112548FFF769FE3DE0012905D1BC
:100A100040F240012248FFF737FE04E040F2400177
:100A20001F48FFF75BFE2FE0012905D140F280014E
:100A30001B48FFF729FE04E040F280011848FFF749
:100A40004DFE21E0012020E000283FF453AF0128B3
:100A50003FF45EAF02283FF469AF03283FF474AF60
:100A600004283FF47FAF05283FF48AAF06283FF4FF
:100A700095AF0728A0D00828ACD00928B8D00A28FC
:100A8000C4D00B28D0D0DDE70020DDF800E001B0B5
:100A9000704700BF000801400010014000140140F1
:100AA000000C014081B0CDF800E0A9E0012905D19A
:100AB00040F220016548FFF7E7FD04E040F2200125
:100AC0006248FFF70BFEBBE0012905D140F20801A7
:100AD0005F48FFF7D9FD04E040F208015C48FFF7EA
:100AE000FDFDADE0012905D144F200015948FFF7B1
:100AF000CBFD04E044F200015648FFF7EFFD9FE014
:100B0000012905D140F200415148FFF7BDFD04E045
:100B100040F200414E48FFF7E1FD91E0012905D187
:100B200040F600014A48FFF7AFFD04E040F600013F
:100B30004748FFF7D3FD83E0012905D141F20001C9
:100B40004348FFF7A1FD04E041F200014048FFF7F0
:100B5000C5FD75E0012905D141F200013D48FFF7CF
:100B600093FD04E041F200013A48FFF7B7FD67E06A
:100B7000012905D140F600013648FFF785FD04E064
:100B800040F600013348FFF7A9FD59E0012905D1DE
:100B900040F240012F48FFF777FD04E040F24001AA
:100BA0002C48FFF79BFD4BE0012905D140F22001C5
:100BB0002848FFF769FD04E040F220012548FFF7CF
:100BC0008DFD3DE0012905D140F240012248FFF7AB
:100BD0005BFD04E040F240011F48FFF77FFD2FE07E
:100BE000012905D140F280011B48FFF74DFD04E0CB
:100BF00040F280011848FFF771FD21E0012020E05C
:100C000000283FF453AF01283FF45EAF02283FF4C1
:100C100069AF03283FF474AF04283FF47FAF052881
:100C20003FF48AAF06283FF495AF0728A0D00828E4
:100C3000ACD00928B8D00A28C4D00B28D0D0DDE722
:100C40000020DDF800E001B0704700BF000801405F
:100C50000010014000140140000C014001490860EF
:100C6000704700BFA081224201490860704700BF61
:100C7000A481224201490860704700BF9C81214243
:100C800001490860704700BF98812142014908600E
:100C9000704700BFAC01224201490860704700BFA5
:100CA000B001224201490860704700BF8001214223
:100CB00001490860704700BFA881224282B0CDF888
:100CC00000E0C3B2C8B2FFF78BFD8DF80400D8B2C4
:100CD000FFF786FD9DF80420D1B2FFF765FDDDF832
:100CE00000E002B07047FFFF81B0CDF800E05FFA8E
:100CF00081F95FFA82FA0FE05FFA8AF15FFA89F010
:100D0000FFF7F4FD0DE05FFA8AF15FFA89F0FFF773
:100D1000C9FE06E0012004E00028EDD00128F2D051
:100D2000F8E7DDF800E001B07047FFFF81B0CDF8D3
:100D300000E08B4609E05846FFF7C6FD0AE058463A
:100D4000FFF7B0FD06E0012004E00028F3D0012801
:100D5000F5D0F8E7DDF800E001B07047FFFFFFFFD6
:100D600041F6FF27C0F2B7077F1EFDD100BF00BFCD
:100D700000BF00BF00BF704744F67F77C0F2120784
:100D80007F1EFDD100BF00BF00BF00BF00BF704786
:100D900082B0CDF800E0C3B2C8B2FFF7E9FC8DF82D
:100DA0000400D8B2FFF7E4FC9DF80420D1B2FFF7AD
:100DB000FBFCDDF800E002B07047FFFF81B0CDF82A
:100DC00000E003460846FFF749FD1846FFF730FDEF
:100DD0000020064C2468A0470120054C2468A04749
:100DE000FFF70EFDDDF800E001B0704700000020C5
:100DF0000800002081B0CDF800E00120034C2468F9
:100E0000A047DDF800E001B0704700BF08000020F7
:100E100081B0CDF800E00020034C2468A047DDF845
:100E200000E001B0704700BF0800002081B0CDF89D
:100E300000E00020064C2468A047FFF7A9FC012031
:100E4000034C2468A047DDF800E001B0704700BF04
:100E50000400002081B01548006840F001011348EB
:100E600001601349134801601048016812480140AD
:100E70000E4801600D4801686FF4802001400B4866
:100E800001600C4801686FF4FE00014009480160F0
:100E9000064801686FF0A0500140044801604FF01F
:100EA00000010648016001B0704700BF0010024019
:100EB0000000FFF004100240FFFFF6FE2C1002407D
:100EC00081B01CF8019B0BF8019BBBEB0A0FF8D11A
:100ED00001B0704782B0CDF800E0FFF78BFFFFF75D
:100EE0003FFF42214120FFF7E9FEFFF739FF0121D3
:100EF0001020FFF759FCFFF733FF2D212E20FFF7BD
:100F0000DDFEFFF72DFF0021092910D2481C8DF8C6
:100F100004108DF80510C1B29DF80500FFF738FFE9
:100F20009DF80410FFF71CFF491CC9B2ECE7FFF75E
:100F300017FF41215A2910D2481C8DF804108DF852
:100F40000510C1B29DF80500FFF7B8FE9DF804102A
:100F5000FFF706FF491CC9B2ECE7FFF701FFFFF7F7
:100F600057FFFFF7FDFEDDF800E002B07047FFFF1E
:100F700081B0CDF800E006490648FFF71FFFFFF7F4
:100F800055FFFFF7F9FEDDF800E001B0704700BF44
:100F900098120000FC11000081B0CDF800E00022A2
:100FA00002210020FFF7A0FE002201210020FFF710
:100FB0009BFE002206210020FFF796FE0548014611
:100FC0000020FFF7B3FEFFF7D7FEDDF800E001B029
:100FD000704700BF9012000081B04FF000094FF041
:100FE000000CBDEB0A0F04DCBDEB0B0F01DBD4469C
:100FF000EA464BF8049BBBEB0A0FFAD1BCEB0A0F95
:1010000005DDE246D9F800B00BF1040BF1E701B0C1
:101010007047FFFF81B002490248016001B070478C
:10102000401901001C00002081B0FEE701B07047AC
:1010300081B0CDF800E0464A464B474C47494BF655
:101040008030814206D94648006840F00201444899
:10105000016011E045F6C050814206D94048006861
:1010600040F001013E48016006E03D4801686FF034
:10107000070001403A480160FFF7ECFE3948036081
:1010800039480460394802EA00013948016002F039
:10109000010040B119463648006800F002000028FF
:1010A00000D1F8E700E0194602F4803040B10B4669
:1010B0002F48006800F40030002800D1F8E700E075
:1010C0000B4602F0805068B12948006840F080511A
:1010D000274801602648006800F00050002800D131
:1010E000F8E7FFE702F0806078B12148006840F03F
:1010F00080611F48016011461A461D48006800F0D3
:101100000060002800D1F8E701E011461A4601F01E
:10111000807070B11648006840F08071144801601A
:1011200011461348006800F0007000B9F9E70A465C
:10113000FFE70C48006800F00C01900000F00C0084
:10114000814200D0F5E7DDF800E001B0704700BF54
:101150008100010502841D004406010040190100C0
:1011600000200240041002402C100240FFFF0F003C
:1011700000100240FFF75CFF00F092F8FFF74AFF13
:10118000FFF70AFFFFF7F4FEFFF7A4FEFCE7FEE718
:101190002A0000002B0000002C000000FFFFFFFFD2
:1011A000000000000000000000000000000000003F
:1011B000000000000000000000000000000000002F
:1011C00000000000180800001808000018080000BF
:1011D000000000000000000000000000000000000F
:1011E00000000000000000000000000000000000FF
:1011F000000000000000000000112008810800002D
:1012000075080000990800008D0800008D0C000092
:10121000990C0000A50C0000B10C0000690C000046
:101220005D0C0000810C0000750C0000FFFFFFFF4B
:10123000FFFFFFFFFFFFFFFFFFFFFFFFFFFFFFFFBE
:10124000FFFFFFFFFFFFFFFFFFFFFFFFFFFFFFFFAE
:10125000FFFFFFFFFFFFFFFFFFFFFFFF8001007E9B
:101260000AB69ECADCFC0EFEDE0000000000000094
:10127000EEF874BAF4E47CEA0A3AE0702CA87EE650
:10128000CE64DCF07A7BFBEADAB60000000010FFE7
:101290000700000004030000FD050000FFFFFFFF42
:1012A00000B5DFF810B0DFF810A0FFF795FE00BD25
:1012B000704700BF0000002020000020FFFFFFFF5C
:00000001FF
