:100000005FEF05F00000000000EF00F000000000CE
:0A0010000000000000000000F3D71C
:0C001C0042B002D08B9801D08B881200FB
:0C00280042B002D08D9201D08D821200F7
:0C00340042B002D0899801D089881200E7
:0C00400042B002D08B9601D08B861200DB
:0C004C0042B002D08B9801D08B881200CB
:0C00580042B002D08B9E01D08B8E1200B3
:0C00640042B002D08B9A01D08B8A1200AF
:0C00700042B002D08B9401D08B841200AF
:0C007C0042B002D0899201D089821200AB
:0C00880042B002D08B9A01D08B8A12008B
:1000940042C06AFF016A0150000A05E1000E68B01F
:0C00A400010E016EF8D76ACF01F01200C7
:1000B00042C0C9FF016A0150000A05E1000EC7B045
:0C00C000010E016EF8D7C9CF01F012004C
:0C00CC0042B002D08A9001D08A8012005D
:0C00D80042B002D08B9801D08B8812003F
:0C00E40042B002D08B9C01D08B8C12002B
:0C00F00042B002D08B9201D08B82120033
:0C00FC0042B002D08B9601D08B8612001F
:0C01080042B002D08B9801D08B8812000E
:0C01140042B002D08A9401D08A8412000C
:0C01200042B002D08F9001D08F801200FE
:0C012C0042B002D08B9601D08B861200EE
:0C01380042B002D08B9801D08B881200DE
:0C01440042B002D08B9A01D08B8A1200CE
:0C01500042B002D08B9601D08B861200CA
:0C015C0042B002D08B9801D08B881200BA
:0C01680042B002D08A9201D08A821200BC
:0C01740042B002D08B9C01D08B8C12009A
:0C01800042B002D0899401D089841200A2
:0C018C0042B002D08F9201D08F8212008E
:0C01980042B002D08B9601D08B86120082
:0C01A40042B002D08B9601D08B86120076
:0C01B00042B002D08F9401D08F84120066
:0C01BC0042B002D08D9601D08D8612005A
:0C01C80042B002D08D9401D08D84120052
:0C01D40042B002D0899001D08980120056
:0C01E00042B002D08D9001D08D80120042
:0C01EC0042B002D08B9001D08B8012003A
:0C01F80042B002D08B9E01D08B8E120012
:10020400F250026EF29E0500FF6A0150FE6E00502D
:08021400FD6E02BEF28E120025
:10021C003CC040F03DC041F03EC000F03FC001F09A
:10022C00010E3E5E000E3F5A0050011012E017C046
:10023C00E1FF18C0E2FF40C0E9FF41C0EAFFEECF8A
:10024C00E6FF15C000F016C001F0D6DF404A412A87
:04025C00E3D71200D2
:10026000FF0E296EFF0E2A6EFF0E2B6EFF0E2C6EF8
:10027000B00E2D6E000E2E6E420E2F6E000E306EE2
:10028000949A3C50040A02E1948601D09496948892
:10029000C66AC79CC79E3C50C6123E50C6123D500F
:1002A000C7123E5205E03F50000AD8B4C78C03D0B5
:0A02B0003F52D8A4C78CC68A120082
:0A02BA00350E0D6E0D2EFED712005A
:1002C40038C0F6FF39C0F7FF3AC0F8FF0900F5CF90
:1002D4003CF0040E3824F66E000E3920F76E000E42
:1002E4003A20F86E0900F5CF3DF0080E3824F66E7A
:1002F400000E3920F76E000E3A20F86E0900F5CF93
:100304003EF00C0E3824F66E000E3920F76E000E07
:100314003A20F86E0900F5CF3FF0A0DF000E006E22
:020324001200C5
:10032600D00E0C6EC90E0D6E0D2EFED70C2EFCD700
:06033600000000001200AF
:10033C00080E3824F66E000E3920F76E000E3A20A7
:10034C00F86E0900F5CF21F00900F5CF22F0090075
:10035C00F5CF23F00900F5CF24F0040E3824F66E07
:10036C00000E3920F76E000E3A20F86E0900F5CF1A
:10037C001DF00900F5CF1EF00900F5CF1FF00900A4
:10038C00F5CF20F0180E3824F66E000E3920F76EDB
:10039C00000E3A20F86E0900F5CF25F00900F5CFD4
:1003AC0026F00900F5CF27F00900F5CF28F0120050
:1003BC0038C0F6FF39C0F7FF3AC0F8FF0900F5CF97
:1003CC0015F00900F5CF16F00900F5CF17F009006C
:1003DC00F5CF18F0040E3824F66E000E3920F76EA7
:1003EC00000E3A20F86E0900F5CF19F00900F5CF90
:1003FC001AF00900F5CF1BF00900F5CF1CF0120024
:10040C0038C0F6FF39C0F7FF3AC0F8FF0900F5CF46
:10041C003CF0040E3824F66E000E3920F76E000EF8
:10042C003A20F86E0900F5CF3DF0080E3824F66E30
:10043C00000E3920F76E000E3A20F86E0900F5CF49
:10044C003EF00C0E3824F66E000E3920F76E000EBE
:10045C003A20F86E0900F5CF3FF0FCDE000E006E7E
:02046C0012007C
:10046E004DD039B002D0929201D092820F012593D5
:10047E006AD039B002D0929801D0928864D039B047
:10048E0002D0969201D096825ED039B002D0949668
:10049E0001D0948658D039B002D0949801D0948867
:1004AE0052D039B002D0949A01D0948A4CD039B03F
:1004BE0002D0949401D0948446D039B002D0939255
:1004CE0001D0938240D039B002D0949E01D0948E48
:1004DE003AD039B002D0949C01D0948C34D039B03B
:1004EE0002D0949601D094862ED039B002D0949832
:1004FE0001D0948828D0010E006E27D03850000A03
:10050E00B0E03850010AB5E03850020AB8E0385071
:10051E00030ABBE03850040ABEE03850050AC1E0B9
:10052E003850060AC4E03850070AC7E03850080AA7
:10053E00CAE03850090ACDE038500A0AD0E03850E7
:0C054E000B0AD3E0D8D7000E006E12009C
:10055A004DD039B002D0929001D092800F012591EE
:10056A006AD039B002D0949001D0948064D039B066
:10057A0002D0969001D096805ED039B002D094967F
:10058A0001D0948658D039B002D0949801D094887A
:10059A0052D039B002D0949A01D0948A4CD039B052
:1005AA0002D0949201D0948246D039B002D093906E
:1005BA0001D0938040D039B002D0949E01D0948E5D
:1005CA003AD039B002D0949C01D0948C34D039B04E
:1005DA0002D0949601D094862ED039B002D0949845
:1005EA0001D0948828D0010E006E27D03850000A16
:1005FA00B0E03850010AB5E03850020AB8E0385085
:10060A00030ABBE03850040ABEE03850050AC1E0CC
:10061A003850060AC4E03850070AC7E03850080ABA
:10062A00CAE03850090ACDE038500A0AD0E03850FA
:0C063A000B0AD3E0D8D7000E006E1200AF
:1006460038C0F6FF39C0F7FF3AC0F8FF0900F5CF0A
:100656003CF0040E3824F66E000E3920F76E000EBC
:100666003A20F86E0900F5CF3DF0080E3824F66EF4
:10067600000E3920F76E000E3A20F86E0900F5CF0D
:100686003EF00C0E3824F66E000E3920F76E000E82
:100696003A20F86E0900F5CF3FF0DFDD000E006E60
:0206A600120040
:1006A80051D039B002D0929401D092840F0125958F
:1006B8006ED039B002D0969601D0968668D039B0FF
:1006C80002D0969401D0968462D039B002D0949624
:1006D80001D094865CD039B002D0949801D0948827
:1006E80056D039B002D0949A01D0948A50D039B0FB
:1006F80002D0989001D098804AD039B002D0939413
:1007080001D0938444D039B002D0989401D0988411
:100718000F0123953CD039B002D0989201D098822D
:100728000F01239334D039B002D0949601D0948627
:100738002ED039B002D0949801D0948828D0010ED8
:10074800006E27D03850000AACE03850010AB1E0FA
:100758003850020AB4E03850030AB7E03850040AA7
:10076800BAE03850050ABDE03850060AC0E03850F3
:10077800070AC3E03850080AC6E03850090ACBE037
:1007880038500A0AD0E038500B0AD3E0D8D7000E08
:04079800006E1200DD
:10079C002D0E385C19E338505F0816E32D0E385CCB
:1007AC00006E016A000E015A280E0024F66E0B0E24
:1007BC000120F76E000EF86E000E01BEFF0EF8223F
:0C07CC000900F5CF00F001D0006A120017
:1007D80039C03AF038C03BF023C0E1FF24C0E2FF43
:1007E800E66A21C000F022C001F008DD3A0E3C6E36
:1007F800000E3D6E020E3E6E000E3F6E0BDD59DDA3
:1008080023C0E1FF24C0E2FF010EE66E21C000F024
:0808180022C001F0F3DC120024
:10082000000E385C19E33850090816E3030E38242B
:10083000006E016A000E0122280E0024F66E0B0ED7
:100840000120F76E000EF86E000E01BEFF0EF822BA
:0C0850000900F5CF00F001D0006A120092
:10085C0027C0E1FF28C0E2FFE66A25C000F026C0F1
:06086C0001F0CADC1200DD
:100872001BD033C038F034C039F035C03AF0E2DE74
:100882001DD033C038F034C039F035C03AF0BDDD88
:1008920015D033C038F034C039F035C03AF011DD2C
:1008A2000DD0010E006E0AD03250000AE2E0325042
:0E08B200010AE7E03250020AECE0F3D7120030
:1008C0001FC0E1FF20C0E2FFE66A1DC000F01EC0AD
:1008D00001F098DCF2DC1FC0E1FF20C0E2FF010E56
:0E08E000E66E1DC000F01EC001F08CDC1200A0
:1008EE0015D033C038F034C039F030DE19D033C0F3
:1008FE0038F034C039F0B4DD13D033C038F034C022
:10090E0039F0CBDE0DD0010E006E0AD03250000A47
:10091E00E8E03250010AEBE03250020AEEE0F3D783
:02092E001200B5
:1009300033C038F075DF00C034F032C038F070DFFB
:0C09400000C038F034C039F047DF12006E
:10094C0027C0E1FF28C0E2FF010EE66E25C000F0D3
:08095C0026C001F051DC12007D
:10096400090E0B6E1E0E0C6EE40E0D6E0D2EFED7D0
:0C0974000C2EFCD70B2EFAD7000012004E
:1009800035C038F036C039F037C03AF017DD32C024
:1009900038F033C039F034C03AF0D0DC23C0E1FF86
:1009A00024C0E2FFE66A21C000F022C001F02ADC88
:1009B00027C0E1FF28C0E2FF010EE66E25C000F06F
:0A09C00026C001F01FDCAFDC1200BE
:1009CA00520E0B6E2B0E0C6E000E0D6E0D2EFED7F8
:0C09DA000C2EFCD70B2EFAD700001200E8
:1009E60033C038F0D8DE00C034F032C038F0D3DE81
:0C09F60000C038F034C039F0ECDE120014
:100A0200326A020E336E346A71DF326A010E336E5D
:100A1200346A6CDF326A060E336E346A67DF326A1A
:100A22005B0E336E0B0E346E000E356E21DF99DFD6
:020A32001200B0
:100A34008BDF8ADFC8DF410E326E420E336ED1DFA8
:100A4400C2DF100E386E010E396EC4DEBCDF2E0E0E
:100A5400326E2D0E336EC5DFB6DF316A090E315C9E
:100A640009E231C032F03150010F336E5FDFABDF8A
:100A7400312AF4D7A8DF410E316E5A0E315C09E2F7
:100A840031C032F03150010F336EABDF9CDF312ABD
:0A0A9400F4D799DFE1DE97DF1200CE
:100A9E00C80E326E0A0E336E000E346E6B0E356E4D
:100AAE000B0E366E000E376E64DF03DF54DF12005E
:0A0ABE00A1DFEEDFB8DFFED7FFD79F
:100AC800D4014200EC014200E00142002C01420046
:100AD8000801420088004200F0004200CC004200B9
:100AE800F8014200E400420040004200D800420001
:100AF800FFFFFFFFFFFFFFFFFFFFFFFFFFFFFFFFFE
:100B0800FFFFFFFFFFFFFFFFFFFFFFFFFFFFFFFFED
:100B1800FFFFFFFFFFFFFFFFFFFFFFFFFFFFFFFFDD
:100B28008001007E0AB69ECADCFC0EFEDE000000D4
:100B380000000000EEF874BAF4E47CEA0A3AE070C7
:100B48006E6E7EE6CE64DCF07A7B7BEADAB6000075
:030B58000000108A
:100B5B000200000000000000000000000100000087
:080B6B00B0004200FFFFFFFF94
:020000040030CA
:0E00000015137F7CF98B91FFFFC0FFE0FF40DE
:00000001FF
